:0300000002A466F1
:0CA46600787FE4F6D8FD7581B902A4AD42
:04CA4E0041034A0056
:10903300F582E4352BF583E4F0E52C227402252731
:10904300F582E43403F583E4F00527E52722F0E510
:109053005C240BF582E4355BF583E4F0E55C22F5F3
:1090630083E5822FF582E43583F583E4F022A3A31D
:10907300E014F0855682855583A322F582E4352BCF
:10908300F58322F07408A3F0E4A3F0A322F582E4AD
:10909300355BF583227F047E007D027C0022F07421
:1090A30020A3F0E4A3F0A322E5562404F582E435DB
:1090B30055F583E022F582E43AF58322F582E4351F
:1090C30027F583E4F022F0852C82852B83A3A3224A
:1090D300852482852383228556828555832285585C
:0590E300828557832285
:10C69E00E4F594F5937592A0759140F59DF596F598
:10C6AE0095F5B2F5B1F5B4F5B375BB10F5A2538F90
:02C6BE00F82260
:10C966005389F0438901538E7F758C10E4F58AD282
:06C976008CD2A9D2AF2211
:10C8380053890F438920538EBFE4F587C28EC28F78
:0BC84800758D40858C8BD2ABD2AF22E7
:0CCAEF00C2B853B7FED288C2A8D2AF2252
:104A3000C2AF12B7179003027401F0E4A3F0A3F021
:104A4000FFFE7D02FC12C4527D03124C189002FA44
:104A5000122E21000186A07F08124C257A0279FAD5
:104A60007D04124C2F74022527F582E43403F5836C
:104A700074FFF00527E527B406EB7F0C124BF87D99
:104A80000612A22D12CB3FE4900302F0A3F0A3F094
:104A9000A304129086F0A312908604F0741412906E
:104AA00089F0A3F074141290A4041290A1F0A31240
:104AB00090A104F0A37423F0A37459F0A3F07F1223
:104AC000124BF87D1C12A22D12CB3FE4F527129059
:104AD0003FB420FA7F2E124C257D20124C081290F4
:104AE0003FB418FA7F4E12909A12C452E4F5277B15
:104AF000017A0379027D1812A22D0527E527C394B8
:104B00006440EC12CB3FE4F5279003027403F0A35A
:104B100074E8F0E52775F002A4FFEF24AEFFE5F09E
:104B20003409FEE43402FDE433FC9002FE122E153B
:104B30009002FE122DB4124BE60527E527C3940A16
:104B400040C7E4F52712903FB409FA7FC2124C3BEC
:104B50007D09124C18E4F52712903FB404FA7FCB7C
:104B6000124C3B7D04124C0812903FB404FA124BD5
:104B7000B6E4900302F07F03124BD0E4900302F0FE
:104B8000A304F0129098124BE6E4900302F07F0623
:104B9000124BD0E4900302F07F07FE7D02FC12C4AA
:104BA000527A0379027D01124C2F12903FB404FA1D
:054BB000124BB6D2AF6C
:104BB500227FF57E097D027C0012C4527B017A03B7
:104BC50079027D0412A22D12CB3F22FE7D02FC123A
:104BD500C4527B017A0379027D0112A22D12CB3FCB
:104BE5002212C4527B017A0379027D0212A22D1290
:104BF500CB3F227E007D027C0012C4527B017A03EA
:104C05007902227B017A03790212A22D12CB3FE4AD
:104C1500F527227B017A03790212A22D12CB3F22BE
:104C25007E007D027C0012C452227B0112A22D124D
:104C3500CB3FE4F527227E097D027C0012C4522277
:1052520075270375284B7BB67A03752903752AD304
:10526200752B03752C52752D00752E00E478B9F656
:10527200C2B3D29375C13C538EFD438F088B828A91
:1052820083A3F015828A83F0E5822404129067EBEF
:1052920024051290B8E4F0EB24061290B8122E21E5
:1052A20000000000EB240A1290B8122E2100000028
:1052B200008B828A83A3A3E4F08B828A83A3A3A3B5
:1052C200F0852A82852983F0852882852783F0A3A9
:1052D200A3F0852882852783A3F0E5282404129071
:1052E200BFE52824051290BFA31290C9A3F0E52CB4
:1052F200240412907EE41290C9F0E52C2409129045
:105302003324061290332407129033240812903368
:10531200240C129033240B129033240A129033245B
:105322000D129033240E1290332418129033241944
:10533200129033241A129033240F1290332416122F
:1053420090332405129033241512903324171290AF
:105352003324101290332411129033241F12907EA2
:10536200122E2100000000E52C242312907E122E22
:105372002100000000E52C242712907E122E21002D
:10538200000000E52C2413129033241212903324CF
:105392001D12907E7407F0A37493F0E4FF852A82B5
:1053A200852983A31290640FBF06F2E4FFE52A2445
:1053B20007F582E435291290620FBF07F0E4FFEB94
:1053C200240EF582E43A1290620FBF0EF2E4FFE57A
:1053D2002C242BF582E4352B1290620FBF0BF07F49
:1053E2000312909A12C107AA2BA92C7B017D0112EC
:1053F200A10D12000912909812C1077B007A007960
:105402007C7D0212A10D120009787CE6FE08E67C82
:10541200002400FFEC3EFEE52C241B12907EEEF0F1
:10542200A3EFF07F077E007D0212C107E52C241452
:10543200FFE4352BFAA9077B017D0112A10D0200C1
:015442000960
:1073D40075230375244B75250375265212C69E1218
:1073E400CAB712AFC112CB3512C96612C83812CA55
:1073F400EF12CA3B12CAE1E4F521F52212C7C2EF2B
:107404007005124A3080F50522E52270020521C379
:107414009405E521940040E41252527F0112CB48B6
:107424007F0112CB511290D37403F0A3A3A374C8A9
:10743400F0752100752201C3E5229401E52194042D
:1074440050EF75C13C5387DF00E58730E5030274D4
:10745400D4E526241DF582E43525F583E05521FE87
:10746400A3E055228EF0122E94749D000174A200A4
:107474000274A7000474AC000874B1001074B60060
:107484002074BB004074C0008074C5010074CA023B
:107494000074CF0400000074F01274FE804E127861
:1074A40070804912C320804412BBBB803F125F0D21
:1074B400803A12B568803512BB71803012C7E08003
:1074C4002B1245D280261284FA8021127D84801CDE
:1074D40012C7A35387DF1290D3A3A3A374C8F012D7
:1074E40090D3A3A3740AF0E58720E5E7E52225E01D
:0A74F400F522E52133F52102743B77
:03000B0002716D12
:10716D00C0E0C0F0C083C082C0D075D000C000C0E8
:0D717D0001C002C003C004C005C006C00769
:10718A0075550375564B7557037558B6755903757A
:10719A005AD3755B03755C5290034AE0D3648094BA
:1071AA00845003027271E4F01290DAE06008E0148D
:1071BA00F0E070078001E4FF12CB48129076E0609D
:1071CA00461290DA129072E0703D1290E1A3F0122A
:1071DA0090E1F0E582240E129067855A82855983E0
:1071EA00F0E5822407F582E4358312905B240F12BE
:1071FA009090E4F0855C82855B83A3A3A3129051EF
:10720A002404129090E4F0129076A3E0603F12906A
:10721A00DA129071A3E070351290E1A3F0E55C24D4
:10722A0009129056240612905624071290562408E2
:10723A00129056240C129090E4129051240A129043
:10724A00562427129090122E2100000000129076E8
:10725A00A3A3E0600D129076129071A3A3E07007C9
:10726A008001E4FF12CB511290AB60051290AB146F
:10727A00F090034AE004F0758C10758A00D28CD223
:01728A00A95A
:10728B00D007D006D005D004D003D002D001D00057
:0B729B00D0D0D082D083D0F0D0E03201
:04CA96007FF47E01AA
:0DCA9A000000EF1FAC0670011E4C70F4226E
:0DCAB700D2C3E4FD12CA960DBD14F9C2C32E
:01CAC400224F
:02C92100AD0760
:10C92300E4FBEBC39D500DC2C212CA96D2C212CA17
:04C93300960B80EEF1
:01C9370022DD
:10B404009003E1E475F001122BA89003E1E0FEA3A0
:10B41400E0FF7D0122AF47AE46AD45AC44E47B106E
:10B424007A02F9F8022CAEC2947F3D12C70A7F2A31
:10B4340012C70A7F7F02C70AFFE03400FED3EF94ED
:10B4440010EE940222FF12C70AEBAE02780222E049
:09B45400FEA3E0FFFD74109D222F
:06C70400FF12C70AE4FF6A
:10C70A0075CDC08FCF7FE87E03E5CD20E70AEF1F06
:0AC71A00AC0670011E4C70F1AFCFA9
:01C7240022F2
:10C3A600C2947FD712C70AE4754E50754DC3F54C3B
:10C3B600F54B784B74FF122DEBEC4D4E4F6009E4B4
:0AC3C600FF12C70AEF30E7EAD29435
:01C3D000224A
:10C1D600AB07AA06C294ED70047F5380027F551206
:10C1E600C70AEBAE027806CEC313CE13D8F912B443
:10C1F60049C333CE33CED8F912C704D29402C3A6AC
:10C20600AB07AA06C294BD01047F8680027F831213
:10C21600C70AEBAE027806CEC313CE13D8F912B412
:10C2260049C333CE33CED8F912C704D29402C3A67B
:0ABEFD008E4B8F4C8B4D8A4E894FFF
:10BF0700C2947FD112C705E54BFF12C70AAF4C1287
:10BF1700C70AE4FDEDC395505017E4FF12C70AABFB
:10BF27004DAA4EA94F8D82758300EF122B1F0D80EE
:03BF3700E3D294BE
:01BF3A0022E4
:0ABF3B008E498F4A8B4B8A4C894DCA
:10BF4500C2947F8712C705E549FF12C70AAF4A1297
:10BF5500C70AE4FDEDC3954E5015AB4BAA4CA94D50
:10BF65008D82758300122AADFF12C70A0D80E5D2B6
:01BF75009437
:01BF760022A8
:0ACB350075CEDC75CDC053AF7F2232
:10C107008F498E488D478C4612B4219003E7EEF095
:10C11700A3EFF0AF49AE48AD47AC4612B421AF0329
:10C127009003E3EAF0A3EFF09003E7E0FEA3E0FF5C
:05C13700E4FD02C1D689
:10C452008F478E468D458C4412CB2A12B419900315
:10C46200E1EEF0A3EFF012B419AF039003E5EAF0A6
:09C47200A3EFF012B40E02C1D6D2
:08A10D008B468A4789488D4901
:10A115009003E4E025499003E312B43C403212B4C5
:10A1250053F54AF55012BEFD12A18AC3E549954A79
:10A13500FFE494009003E3F0A3EFF0AB467C00E569
:10A1450048254AF9EC3547FA8F50E4FFFE02BEFD7B
:10A155009003E3E0FEA3E0FFAB46AA47A948854983
:10A165005012BEFD9003E3E48549F0122BA890033D
:10A17500E3E0B4020FA3E0B4100A12A18AE490034D
:04A18500E3F0A3F070
:10A18900229003E7E475F001122BA8AFF0FEE4FD7D
:04A1990012C1D622F7
:08A22D008B448A4589468D47E8
:10A235009003E6E025479003E512B43C403B12B499
:10A2450053F548F54E12BF3B12B40E12C20612B4B6
:10A255000412C1D6C3E5479548FFE494009003E591
:10A26500F0A3EFF0AB447C00E5462548F9EC354515
:10A27500FA8F4EE4FFFE02BF3B9003E5E0FEA3E04C
:10A28500FFAB44AA45A94685474E12BF3B9003E55F
:10A29500E48547F0122BA89003E5E0B40218A3E08B
:10A2A500B41013E49003E5F0A3F012B40E12C20645
:06A2B50012B40412C1D630
:01A2BB002280
:0100090022D4
:09CB3F0012B40E12C20602CB1F53
:0BCB1F0012B42B7FA912C70AD2942287
:0BCB2A0012B42B7F9A12C70AD294228B
:10C74600108081824041422021222313834311120B
:0FC75600844424158586874546472526271617D0
:10CA2700C2AFD2A78D80C283C2B412C581D2B4D29D
:04CA370083D2AF22D5
:10C7C200D2A7C284E4FEEF25E0FF30B5054307019E
:0DC7D20080035307FED285C2850EBE10E91C
:01C7DF002237
:10C58100D284C284E4FE30B505430701800353071A
:10C59100FEEEC394075004EF25E0FFD285C2850E5D
:03C5A100BE08E3EE
:01C5A4002274
:10C97C00E4FD12CA2763070F53070FEF6001220D66
:05C98C00BD05EF7F0076
:01C991002283
:10C992007D0512CA276307F05307F0EF6001220DED
:05C9A200BD08EF7F005D
:01C9A700226D
:10C1700090C746E4FD12CA2763070F53070FEF600D
:10C180001BC454F0FFE4F9E9C39413500FE493FE89
:10C19000EF4DB50603AF012209A380EB0DBD05D518
:02C1A0007F130B
:01C1A200227A
:10C2660090C7597D0512CA276307F05307F0EF60A0
:10C2760017E4F9E9C3940C500FE493FEEF4DB506AD
:0EC2860003AF012209A380EB0DBD08D97F0C88
:01C294002287
:08CB7D00AF0312C5A502C803B5
:0DC8F100C291C2907F0212C8FED2907F0259
:0BC8FE0000000000AE071FEE70F622E5
:10C6C000D29112C8FA2091037F0022C2917F0212F8
:10C6D000C8FE3091037F0022C2907F0212C8FE7F05
:02C6E000012235
:06CBB00012C8F1D291222F
:06CBB60012C8F1C290223A
:08CB7500D29112C8F3C2902214
:05C7FE007F6412C5A5D7
:10C803007DFFC290D29112C8F5309107DDFBC29033
:07C813007F0022C2907F01AB
:01C81A0022FB
:02C5A500AD07E0
:10C5A700E4FCC29000EDA804088002C333D8FC3035
:10C5B700E704D2918002C29112C8F50CBC08E3C20D
:01C5C70090E3
:01C5C8002250
:10C85300E4FDD291FCED25E0FD12C8F330910343D2
:0AC8630005010CBC08EFC290AF0500
:01C86D0022A8
:02BC4F00AB0741
:10BC510012C6C0AD07ED7002802812C7FEAD07ED18
:10BC61007002801E12CB7DAD07ED7002801412C6EA
:10BC7100C0AD07ED7002800A7F6512CB7FAD07ED85
:10BC8100700612CBB07F002212C853AD0712CB75DC
:05BC910012CBB0AF056D
:01BC9600228B
:04C23600AB05AA07A3
:10C23A0012C6C0EF7002801812C7FEEF700280109B
:10C24A0012CB7DEF70028008AF0212CB7FEF70062F
:0BC25A0012CBB07F002212CBB07F019E
:01C2650022B6
:06AD2F008B3A8A3B893CCF
:10AD350012C6C0EF7002802212C7FEEF7002801AA1
:10AD4500E4FF12CB7FEF7002801012C6C0EF7002D5
:10AD550080087F6512CB7FEF700612CBB07F002293
:10AD6500E4F53DE53DB4020912C853EF547FFF8079
:10AD75000312C853783AE475F001122E5EEF122BD8
:10AD85000DE53D6406600312CBB6053DE53DC39474
:0BAD95000740D012CB7512CBB07F013D
:01ADA0002290
:08B0F7008B3A8A3B893C8D3D38
:10B0FF0012C6C0AE07EE7002804212C7FEAE07EE58
:10B10F0070028038AF3D12CB7FAE07EE7002802CFD
:10B11F00E4F540E540C3953FE4953E502B783AE483
:10B12F0075F001122E5E122A94FFE53DB40203431F
:10B13F00078012CB7FAE07EE6401600612CBB07FA3
:0DB14F000022053D054080CB12CBB07F01F2
:01B15C0022D0
:0ECAC5007D107F8012C2367D0F7F8402C23644
:0ECAD3007D0FE4FF12C2367D10E4FF02C23672
:10C0D10006050403020100000209F3000200040046
:10C0E100020003000200060099011201310107005C
:10C0F1002300590059000300FF003129313031304C
:06C1010031313031303114
:02CA5200C1021F
:1032E400E5352410F582E43534F583E0FFE5352433
:1032F4000FF582E43534F583EFF0E5352411F582DA
:10330400E43534F583E0FFE5352410F582E4353403
:10331400F583EFF0E5352412F582E43534F583E0E6
:10332400FFE5352411F582E43534F58322853682B0
:10333400853583A3A37403F0E536240EF582E435C2
:1033440035F583E0240FFFE433FEE5362FF582E5FF
:10335400353EF583E4F0E536240EF582E43535F5A3
:103364008322F0852882852783E4F0E582240EF504
:1033740082E43583F58322F582E4352BF583E4F08A
:10338400E52C2411F582E4352BF583E4F0E52C22B9
:10339400F0E52A240EF582E43529F58322C2D5E529
:1033A40035240FFFE43534FAE535A9077B01240EF3
:1033B40022E4F0E52A2405F582E43529F583E4F0D6
:1033C400852A8285298322E53A240EF582E435395B
:1033D400F58322E53025E025E024B8F582E434C005
:1033E400F583122DC09002FA022E15122A94F5428A
:1033F400E5452406F582E43544F58322EFF085396A
:103404008285388374FFF0A3F0E5392404F582E45F
:103414003538F58322E53A2427F582E43539F583F6
:10342400229002FE122DB4EF24FFFFEE34FFFEEDD6
:1034340034FFFDEC34FFFC22E528240EF582E4354C
:1034440027F583227E007D027C009002FA122DDD96
:10345400C3022D7118E6FC08E6FDEC900302F0AF00
:1034640005A322E52E2427F582E4352DF58322E4F5
:10347400F085368285358322853282853183E4F076
:10348400A3A3F0E532240EF582E43531F583222539
:10349400E024E8F582E434C0F583E493787EF6E52D
:1034A4003025E022853582853483A3E0540F22A39E
:1034B400A3A3F0E52A2406F582E43529F58322E561
:1034C4003090C0D193F531229002FE122E1575C1B1
:1034D4003C9002FE122DB4EC4D4E4F22E52C2427D5
:1034E400F582E4352BF58322A3F08533828532837C
:1034F400A322E539240EF582E43538F58322E478F5
:10350400B9F675380075390085398285388322C249
:10351400D5E536240FFFE43535FAA9077B0122F0FF
:10352400A3A3F0E536240EF582E4353522787D76C2
:1035340001E6FB9002FA122DB4EF5407FFEBA80743
:103544000822E5392404F582E43538F583228528F8
:1035540082852783A322122DB4E4FBC3FAF9F8026F
:103564002D71852A8285298322EFF0E535240E22E8
:10357400853A82853983A3E0540122C3787DE69499
:103584000A18E69400227B64E4FAF9F8022CAEE40B
:10359400F0852C82852B83A322122DDDE542540F66
:1035A400FFE4FCFDFE22F582E43536F5832285280E
:1035B4008285278322F582E4352BF58322F0853535
:1035C4008285348322E0547FF0E535240E22E53AE7
:1035D400240FFFE43539FAA9077B0122FDE433FC0B
:1035E400E5362DF582E5353C22F583E493FF18F6A4
:1035F40018E6FED39F229002FA022DB4E528241D7A
:10360400F582E43527F58322E52C241DF582E43583
:103614002BF58322E4F0E582240EF582E43583223F
:10362400122DB4E536240A22E0C4540FFF7B06228F
:10363400EEF608EFF6C3E49FE49E22F0900302E066
:10364400FEE539240522122DDD022C088F828E839B
:10365400A3A322853282853183E0640B2225E024F2
:10366400E2F582E434C022E0FFE535240F228539F7
:10367400828538832285338285328322FFE435377D
:10368400FAA9077B0122852A8285298322852A8239
:10369400852983A3A3A322852C82852B83022DB4A1
:10BB710075270375285212C97CEF70379003B5E021
:10BB810014F0E07034123600C083C082E0FFA3E0FD
:10BB910054BFD082D083CFF0A3EFF0123600C08320
:10BBA100C082E0FFA3E04410D082D083CFF0A3EFA6
:09BBB100F080009003B57405F06A
:01BBBA002268
:105F0D0075270375284B752903752AB6752B0375EF
:105F1D002C52747C44C970030260C112C170EFC36E
:105F2D00941340030260C112C170123566EFF07F09
:105F3D000112CB487F0112CB5185288285278374AE
:105F4D0002F0A3A3A374C8F0123566E0FFC3940A50
:105F5D004003026095A3A3E06008123566A3A3E099
:105F6D0004F0123566A3A3E0C39404400302608DD0
:105F7D00123395E004123394E0FED3940C500302D7
:105F8D006077E52A2410123399E0FDE52A240F12DB
:105F9D003399EDF0E52A2411123399E0FDE52A2419
:105FAD0010123399EDF0E52A2412123399E0FDE534
:105FBD002A2411123399EDF0E52A2413123399E0B6
:105FCD00FDE52A2412123399EDF0E52A241412333B
:105FDD0099E0FDE52A2413123399EDF0E52A2415F5
:105FED00123399E0FDE52A2414123399EDF0E52AD8
:105FFD002416123399E0FDE52A2415123399EDF09C
:10600D00E52A2417123399E0FDE52A241612339957
:10601D00EDF0E52A2418123399E0FDE52A24171234
:10602D003399EDF0E52A2419123399E0FDE52A2480
:10603D0018123399EDF0E52A241A123399E0FDE593
:10604D002A2419123399EDF0E52A241B123399E015
:10605D00FDE52A241A123399ED123394740CF0E5F0
:10606D002A241BF582E435298010123566E0FF12D3
:10607D00336FE5822EF582E43583F583EFF08008EA
:10608D00123566A3A37403F012360CC083C082E0F0
:10609D00FFA3E04460D082D083CFF0A3EFF012369F
:1060AD000CC083C082E0FFA3E054EFD082D083CF39
:0460BD00F0A3EFF06D
:0160C10022BC
:088244008B3D8A3E893F8D400D
:10824C00E4F5437544037545B6E545240E1233F841
:10825C00E0FF700302831DC3940A400302832712BC
:10826C0033F4122E2100000000E545240E1233F8E1
:10827C00E06402704F30D54C783D75F001122E5EE3
:10828C00122A94F5421235A21233F4122E1512331F
:10829C00F4C083C082122DB47804122D95D082D0F4
:1082AC0083122E15783DE475F001122E5E1233EF19
:1082BC00C083C08212359D122C08D082D083122E1E
:1082CC001502832AE4F541E541C395405050AB3D7E
:1082DC00AA3EA93F1233EFC083C082122DB4E47BB7
:1082EC000AFAF9F8122C23D082D083122E151233ED
:1082FC00F4C083C08212359D122C08D082D0831218
:10830C002E1505417401253FF53FE4353EF53E80C1
:10831C00B61233F4122E2100000000754301AF4356
:01832C00222E
:105D540075330375344B7535037536B6900352E0CD
:105D64006402705312335AE0FF6043C39403501F1C
:105D740012351312335AE0FD128244E5362406121A
:105D8400335E122DB4E536240512335EEFF0221291
:105D9400CBA2123475A3E4F0E536240512335E1267
:105DA4003473F0E5822404123373E4025ED31234B4
:105DB40075123618025EF312335AE07003025EEA7B
:105DC400123475A3A3E0FF702C123475A3A37403DB
:105DD400123359E0240F1235E0123356E024101226
:105DE40035E0123356E0FE12335AE5822E12337335
:105DF400E04480801AEF6401701E123331E02410F5
:105E0400FFE433FEE5362FF582E5353EF583E412F3
:105E14003359E02402F08010123475A3A3E0640225
:105E24007006123331E004F012335AE0FDC3940AD1
:105E34004003025ED8123513128244EF7079123493
:105E440075A3A3A3E06025D202123475A3A3A3E42F
:105E5400F0E536240612335EC083C0821236241263
:105E6400335E12364AD082D083122E15300227E5D3
:105E740036240412335EE0601DC202E536240612A5
:105E8400335EC083C08212362412335E12364AD087
:105E940082D083122E15E536240612335E12362480
:105EA40012335E122E1512CB9BE536240A123519D5
:105EB4007D0112CB63800EE536240612335E122E6A
:105EC4002100000000123475A3123473F0A3A3124E
:105ED4003526801B12CB9BE536240412335E123424
:105EE400731235238009C202123475E4123523F586
:105EF40083E4F0853482853383A374C8F0853482C7
:085F0400853383A3A37432F07E
:015F0C002272
:109BD500752F0375304B7531037532B67E037F5291
:109BE500EF2410F582E43EF583E07077123650A33A
:109BF500E070708F828E83E06403604C123657608C
:109C05002BE5822404123373E07021123487E0605F
:109C150057C2D512CBA2E532240FFFE43531FAE560
:109C2500321233AE12348BE0FD02CB6C1236577014
:109C350037E5822404123373E0702DE532240412D3
:109C4500348B7401F0025D5412347CE4F08530826B
:109C5500852F83A374C8F0853082852F83A3A374D1
:089C650032F02212347CE4F01D
:019C6D0022D4
:101EEE00C20075320375334B7534037535B67536CE
:101EFE0003753752753800753900853782853683FC
:101F0E00A3A3A3E0700302263FE537240B1235AAE4
:101F1E0074011235C1E0640B700302227CC2001200
:101F2E00336FE060030220DE1234A8F530FF12C9D1
:101F3E00E8E530C3940750521234C3B4020AFF12BC
:101F4E00271FE6547FF68005AF3112271FE53012AA
:101F5E00349324E9F582E434C01235ED500AEEC311
:101F6E00787E964003022089787EE6787CF61234DD
:101F7E00C3B40204E64480F612CAC5787CE6FFAD0F
:101F8E003112C23612CAD3022089E530B407189036
:101F9E0002FA122E21000209EF1235FA12C1077D44
:101FAE00041226F5022089E5306408703C9002FA8E
:101FBE00122E21000209F3122666787FF608EFF63C
:101FCE00E4FD7BFF7AFFF9F8C3122D5B400A787FA0
:101FDE00E694004003022089E4787FF608F6123476
:101FEE0058EFF07FF37E09803BE5306409703D9039
:101FFE0002FA122E21000200041226667881F608DB
:10200E00EFF6D394E7EE9403500AC3E6940118E674
:10201E009400506778817600087601123458EFF0FC
:10202E007F047E001226D77D020220831233D71240
:10203E0035FA12C1077B007A00797C7D0112A10D61
:10204E00120009E53012366112349C24E3F582E465
:10205E0034C01235ED5007EEC3787E96501D787E53
:10206E00E6787CF61233D71235FA12C4527B007A18
:10207E0000797C7D0112A22D12CB3F1234A8F530CF
:10208E00C39407500F1234C3787CE6FFAD3112AA09
:10209E00EC02226EE530B4070C7B017A0379021252
:1020AE00774B02226EE530B40804787F8007E53066
:1020BE00B409137881123459EFF07B017A03790257
:1020CE00128BA502226E787CE6FF12C02802226EC9
:1020DE001234A8F530FF12C9E8E530640770030228
:1020EE002240E530C3940750631234C36406703146
:1020FE00E535240E123329E0D39404500302223323
:10210E001232E4EFF0E5352413123329E0FFE53502
:10211E00241212332912356D1233297404F002225F
:10212E0033E53164037012E535240E123329E0D302
:10213E0094015003022233802DE535240E123329EB
:10214E00E0D39402500302223302220F1233D77FC0
:10215E00031234487029E535240E123329E0D39446
:10216E00015003022233E535241012332912366B47
:10217E0012332912356D1233297401F00222337F86
:10218E000412344860077F06123448701FE5352468
:10219E000E123329E0D3940350030222331232E499
:1021AE0012356D1233297403F00222337FF37E0948
:1021BE0012344A703FE535240E123329E0D39405CC
:1021CE0040631232E4EFF0E5352413123329E0FFB9
:1021DE00E5352412123329EFF0E535241412332994
:1021EE00E0FFE535241312332912356D12332974AD
:1021FE0005F08031E535240E123329E0D3940240E8
:10220E0024E535241012332912366B123329EFF0E0
:10221E00123325E0FFE535241012332912356D12E5
:10222E0033297402F01233A1123329E0FD12CB6C64
:10223E00802E123325E04480F0E535241412332924
:10224E00E04480F0E5352417123329E04480F01283
:10225E0033A1123329E0FDE4F54175420412A2BC0C
:10226E001234EE74321234EC74C8F0022638E535AE
:10227E00240E123329E07003022621D200C2D51299
:10228E0034A8F530640770030224ACE530C394071C
:10229E005030D2D51234C364067027E535240E12A1
:1022AE0033297402F012332512366B123329EFF0F4
:1022BE00E5352412123329E0FFE5352410123329B7
:1022CE00EFF01233A3123329122727E5306408608A
:1022DE0003022392E5352406123329122DB4787F9A
:1022EE0012363440030225DD18E6FE08E6FFE4FC54
:1022FE00FDFBFA7901F8122D5B50030225DD787F84
:10230E00123459123400747112363F123411EEF039
:10231E00E5392406123411EFF012350CA3A3E4F0C4
:10232E00A37403F012A19D9002FE122E210000C391
:10233E00501234251234CC600578B9E660F31235AC
:10234E0002E0FEA3E0F47002EEF4702D12340DE004
:10235E00247F701A7FF312269C7D021227117F3E76
:10236E00129789E4F52F12268D40FB0225DD1226E9
:10237E00BB12268D40FB0225DD1226BB1226AC4079
:10238E00FB0225DDE53064097032E5352406123393
:10239E0029122DB4788112363440030225DDC3E6AE
:1023AE0094E818E6940340030225DD123459EFF049
:1023BE007F047E001226D77D020224A31234A8FBCE
:1023CE00F530C39407E530500C12349324E9F582AE
:1023DE00E434C0800D12366112349C24E3F582E49D
:1023EE0034C0F583E49318F6E5352406123329122A
:1023FE002DB4787CA607E6FFD3089640030225DDB0
:10240E00EFC3089650030225DD8B30E5309407505C
:10241E00671234C3640470447F0512BC4F787CA6E7
:10242E0007E6FFC4540F6008EF540F240AF6800627
:10243E00787CE6540FF6E5352406123329122DB4B6
:10244E008F31787CE690C0FA93FFE531D39F40033D
:10245E000225DD12CAC57D04AF318013E535240691
:10246E00123329122DB48F3012CAC5AD31AF3012CE
:10247E00C23612CAD30225DD1233D7E53524061231
:10248E003329122DB48F301235FA12C4527B007AD2
:10249E000079307D0112A22D12CB3F0225DD1233C1
:1024AE00251235C91233297403F01233A3123329BE
:1024BE001226CB123329122DB4900302EFF0E5351C
:1024CE0024141233291235C91233297403F0E53559
:1024DE0024121233A71233291226CB123329122DAE
:1024EE00B4900303EFF0E53524171233291235C9E2
:1024FE001233297403F0E53524151233A71233294C
:10250E00122727E5352406123329122DB490030421
:10251E0012356D1233297403F0E53524181233A7E2
:10252E00123329E0FD1282448F31E5352406123331
:10253E0029122DB4900305123400747012363F1216
:10254E003411EEF0900303E0FEE539240612341147
:10255E00EEF0900304E0FEE5392407123411EEF09C
:10256E00E5392408123411EFF012350CA3A3E4F070
:10257E00A37405F012A19D9002FE122E210000C33D
:10258E00501234251234CC600578B9E660F312355A
:10259E0002E0FEA3E0F47002EEF4702B12340DE0B4
:1025AE00247F70197FEF12269C7D041227117F3C29
:1025BE00129789E4F52F1226AC40FB80121226E505
:1025CE0012270240FB80081226E512270240FB7BF1
:1025DE00017A0379E912AD2F1276267F0312272F87
:1025EE00AA36A9377B017D0112A10D1200097F04C5
:1025FE0012272F7D021226F5900302E0FEA3E07C47
:10260E00002400FFEC3EFEE537241B1235AAEEF047
:10261E00A3EFF01235C212336DE4F08533828532AA
:10262E008374C81234ECA37432F0300003021F1707
:10263E00221235C2A3E41235C112336EE4F0E5372F
:10264E0024091235AA7401F0E537240A1235AAE4DA
:07265E001234EDA37432F009
:10266500229002FA122DB412C1077B017A03790276
:102675007D0212A10D120009900302E0FEA3E07C89
:10268500002400FFEC3EFE227F887E1312C8AB05B6
:102695002FE52FC3940A227E097D027C0012C452C5
:1026A5007B017A037902227F887E1312C8AB052F3E
:1026B500E52FC3940A22E4FF12C3FC7D037F3F127A
:1026C5009789E4F52F22E0FD1282448F31E5352408
:1026D50006227D027C0012C4527B017A0379022214
:1026E500E4FF12C3FC7D037F3D129789E4F52F2299
:1026F5007B017A03790212A10D120009227F887EDF
:102705001312C8AB052FE52FC3940A2212A22D126E
:10271500CB3FE4FF12C3FC7D032212BC4F787CA69D
:102725000722E0FD1282448F31227E007D027C006B
:0427350012C10722A4
:02653D008F3697
:10653F0075370375384B753903753AB6753B037567
:10654F003C521233CBE07003026693D39406407231
:10655F001233CB7406F0E53A24101233CFE0FFE587
:10656F003A240F1233CFEFF0E53A24111233CFE074
:10657F00FFE53A24101233CFEFF0E53A241212332D
:10658F00CFE0FFE53A24111233CFEFF0E53A2413B1
:10659F001233CFE0FFE53A24121233CFEFF0E53A92
:1065AF0024141233CFE0FFE53A24131233CFEFF068
:1065BF00E53A24151233CFE0FFE53A24141233CF16
:1065CF00EFF0C2D5123574240CFF12C9FD1235D26B
:1065DF001233CBE0FD12CB6C853A82853983E064B0
:1065EF000B600302669C1235D212336FE0FD1282EC
:1065FF0044EF600302669CE53A24061233CF122D56
:10660F00B49002FA122E15E47B08FAF9F89002FA08
:10661F00122DB4122CAE9002FE122E159002FE1205
:10662F002DB412C1077B007A00797C7D0112A10D78
:10663F00120009E53670131235318002C333D8FCCE
:10664F00787DF6F4F61856F6800F1235318002C3B6
:10665F0033D8FC787DF61846F69002FE122DB41250
:10666F00C4527B007A00797C7D0112A22D12CB3FA0
:10667F00853A8285398312336DE4F0123574FF1237
:10668F00C7848009123574240CFF12C9FD85388226
:10669F00853783A374C8F0853882853783A3A374A5
:0266AF0032F0C7
:0166B10022C6
:10A68A0075360375374B7538037539B6753A0375E0
:10A69A003B521234F6E06049D3940140181234F662
:10A6AA007401F0E53924101234FAE0FFE539240F79
:10A6BA001234FAEFF0E539240F1234FAE0FFE4FD20
:10A6CA0012B228853982853883E0640B7036E582B8
:10A6DA00240F123373E014853B82853A83A3F080FA
:10A6EA0000853B82853A83A3E0FF7D0112B228856B
:10A6FA003782853683A374C8F0853782853683A36B
:04A70A00A37432F012
:01A70E002228
:107A8B00753603753752753800753900127B5712EE
:107A9B00367274FFF0A3F01235467472F012367220
:107AAB00A3A3E4F0A304F012A19D9002FA122E21DD
:107ABB000000C3509002FA1234289002FA122E15CD
:107ACB0075C13C9002FA1234D8600578B9E660E4CF
:107ADB00E478B9F6753800753900123672E0FEA3FA
:107AEB00E0F47002EEF4704C123546E0248E7035E3
:107AFB00127B57E539240512354AE0FF7B037D38AD
:107B0B00127C8BE539240612354AE0FF7B037D405E
:107B1B00127C8BE4787CF608F6127B7E70010612E1
:107B2B00357F40F522127B64127B7E700106123585
:107B3B007F40F522127B647F887E1312C8AB787D61
:0B7B4B0006E61870010612357F40ECC2
:107B560022E4FF12C3FCE4FD7F3B12978922E4FF77
:107B660012C3FCE4FD7F3B1297897D037F40129789
:107B760089E4787CF608F6227F887E1312C8AB78F3
:057B86007D06E6182257
:10A57E0075300375314B7532037533B6753403750B
:10A58E003552123679A3E0FFF52F85358285348357
:10A59E00A3A3A3E07037EF540FFFBF0303027A8B20
:10A5AE00123679E07006A3E0FF12C4A2E535240945
:10A5BE00F582E43534F583E4F012367912336EE425
:10A5CE00F0853182853083A3A37432F022E53524E1
:10A5DE000BF582E43534F5837401F0E52F54031442
:10A5EE00600B14600D2402700CE4FF80027F0102E8
:05A5FE00653D12A68A74
:01A603002234
:103D7C00C20075310375324B7533037534B6753526
:103D8C0003753688E536240CF538E43535F537758A
:103D9C003903753A52E534240EF582E43533F58354
:103DAC00E06003024041127F7585368285358312AF
:103DBC0034D8700302400F123419122DB485368298
:103DCC00853583123451500A123419122E210000F9
:103DDC0000017FC27E097D027C0012C1077B017A43
:103DEC0003790A7D0412A10D12000978027C037D6F
:103DFC00017B017A03790A7E007F04122A6E123449
:103E0C0019122DB490030212345140119003021276
:103E1C002DB4123419122DDD122C15802A123419DE
:103E2C00122DB4900302122DDD122C15C374B29F07
:103E3C00FF74C99EFEE49DFDE49CFC9002FA122ED8
:103E4C00159002FA122DB4900302122E1575302122
:103E5C00AF30E4FCFDFE900302122DDD122C23E4A6
:103E6C002FFFE43EFEED3403FDE43CFC9003061210
:103E7C002E15900306122DB412C107E536240CFF43
:103E8C00E43535FAA9077B01AD3012A10D120009FA
:103E9C00E4FF12C3FCE5382402123680E4FD1270F4
:103EAC0030123419122DB4E47BE87A03F9F8122C91
:103EBC00AEAC00AD01AE02AF0312358A8F2FE52FE9
:103ECC006009D200E4FB7D6812B812123419122D6D
:103EDC00B412358AAC00AD01AE02AF037B0A1235C9
:103EEC008C8F2F20000CE52F6011D200E4FB7D702D
:103EFC008006E4FB7D70AF2F12B812123419122D0C
:103F0C00B4E47B0A12358DAF038F2FE4FB7D78125E
:103F1C00B8127B02E4FD7F4F12B50F7B027D107F40
:103F2C005012B50F7B027D207F0A12B812E538249F
:103F3C0013123680753F287540027D01125443E5FB
:103F4C0038240FF582E43537F583122DB4E5382487
:103F5C000BF582E43537F58312364A9002FE122EA9
:103F6C00157B04E4FD7F4A12B50F7B047D107F4B5B
:103F7C0012B50F7B047D207F0A12B8127B017A02E6
:103F8C0079FE753F287540047D011254437B06E48D
:103F9C00FD7F0212B8127B067D08E4FF12408B12E3
:103FAC00362C7D1012408BE07D1812404DC47D20C4
:103FBC0012404D7D28124062C47D301240627D3823
:103FCC00124077E0C47D401240777D481240B87BA8
:103FDC00067D507F0A12409A12362C7D5812409A58
:103FEC007D601240B87B067D687F0A1240A91236AC
:103FFC002C7D701240A9E0540FFF7B067D7812B81F
:10400C00128013E4FF12C3FCE4FD7F3B1297897D01
:10401C00047F3A129789E53A240612341D7401F094
:10402C00853282853183A3A37432F0853282853147
:10403C0083A374C8F085348285338312336DE4F026
:10404C0022540FFF7B0612B812E5382406F582E4E1
:10405C003537F583E022540FFF7B0612B812E53892
:10406C002407F582E43537F583E022540FFF7B06F5
:10407C0012B812E5382408F582E43537F58322129C
:10408C00B812E5382405F582E43537F5832212B8E9
:10409C0012E5382409F582E43537F5832212B8127B
:1040AC00E538240AF582E43537F58322E0540FFF16
:0640BC007B0612B812227F
:10C4C8009003B6A3E0C4540FFF530707EF24FE60A0
:10C4D8000A14600A2402700902A57E021EEE023DBB
:04C4E8007C129BD552
:01C4EC00222D
:10B9590075270375284B752903752AB6900352E09C
:10B9690064036034E52A2404F582E43529F583E08B
:10B97900700B12368AA3A3A304F0125D5412368AFF
:10B98900E4F0852882852783A374C8F085288285F9
:0DB999002783A3A37432F02212368AE4F053
:01B9A600227E
:109AA0007527037528B67E037F52123650A3E070E7
:109AB0004A8F828E83E0FD64036037ED640260327A
:109AC0001235B2A3A3E0702812343CE0FF701212EA
:109AD000343C7401F0E528240F1234407480F08087
:109AE0004812343CE5822F123373E04480F0803911
:109AF00080431235B2E4F0A3A3F0221235B2A3A33F
:109B0000E0703212343CE0FF701212343C7401F009
:109B1000E528240F1234407480F0800D12343CE5A7
:109B2000822F123373E04480F01235B2E4F0A3A325
:0A9B300004F002C4C81235B2E4F0DC
:019B3A002208
:10B15D007E037F4B7527037528B6752903752A5213
:10B16D00123691E0603D123552E0FDFC53047063E0
:10B17D000420EC6007123552E4F08013AC050C533B
:10B18D00040FECD3940B4002E4FC123552ECF01298
:10B19D003552E04420123366E4F08F828E83A3741F
:10B1AD00C8800E123691E4F01235527420123366B7
:05B1BD00E4F012C4C81B
:01B1C200226A
:10AE130075270375284B7E037FB6752903752A5260
:10AE23008F828E83A3E0FDFC530470630410EC60F7
:10AE33000915828E83A3E4F08015AC050C5304033B
:10AE4300ECD394034002E4FC8F828E83A3ECF08F57
:10AE5300828E83A3E04410F08F828E8312336DE4DD
:10AE6300F0123650F0E52A2404F582E43529F583FF
:0FAE7300E4F0852882852783A374C8F002C4C841
:10B1C30075270375284B752903752AB6752B0375E7
:10B1D3002C521234E0122DB4EF2401FFE43EFEE4BE
:10B1E3003DFDE43CFC1234E0122E151234E0122D26
:10B1F300B4E47B6412355F500A1234E0122E21004E
:10B20300000001852A82852983A37430F0852A8270
:10B2130085298312336DE4F0852882852783A374FF
:05B22300C8F002C4C8E0
:10A70F0075270375284B752903752AB6752B0375A5
:10A71F002C88752D03752E5212346712355A7020FE
:10A72F00127F7512369BE47B64D31235604005129D
:10A73F00369B8012123467122E2100000064800CA9
:10A74F00123467123428123467122E15123467121E
:10A75F00355A700A123467122E2100000001852A23
:10A76F0082852983A37430F0852A82852983123349
:10A77F006DE4F0852882852783A374C8F002C4C8CE
:1060C20075270375284B752903752AB6752B037539
:1060D2002C52123595A3A3E070030261CCE52A2469
:1060E2000E1234BBE0604EE52C24041235B9E07088
:1060F200441233C4A3E0B410047F0C800A1233C4E8
:10610200A3E0B411077F0D12C9FD80211233C4A38D
:10611200E0B4120C123595E0FF7D0112B228800D19
:106122001233C4A3E06006540FFF12C9E81233C44D
:106132001236188032E52C240B1235B9E060421277
:10614200C8BE1233C4A3E4F0E52A24041233BB12FE
:10615200336EE4F0E52C240B123388240412337BD3
:106162002410F582E4352BF583E4F0852882852717
:1061720083A3A37432F0852882852783A374C8F091
:10618200221233C4A31233C2F0E582240412337301
:106192001233B5A3A31233C31234B3122E2100005B
:1061A2000000E52A240A1234BB122E21000000004E
:1061B200E52A240EF582E4352912338024101235A3
:1061C200B9123593A3A3F00262431233C4A312336C
:1061D200C2F0E58224041233731233B5A3A312333F
:1061E200C31234B3122E2100000000E52A240A1241
:1061F20034BB122E2100000000E52A240E1234BB0B
:10620200123593A3A3F0E52C240412338824081238
:1062120033882409123388240A123388240712335C
:10622200882406123388240C123388240B12337B01
:10623200241012338824271235B9122E21000000AF
:046242000012C2F292
:016246002235
:10B568007452241DF582E43403F583C083C082E05D
:10B57800FDA3E054DFD082D083CDF0A3EDF090039B
:10B58800B6E0122E6EB5A60AB5A90CB5AC0DB5AFCE
:10B598000EB5B20FB5B510B5B8110000B5BB026055
:10B5A800C202AE1302B15D029AA002B95902B1C338
:06B5B80002A70F12C4C837
:01B5BE00226A
:10B5BF00F0E52A2407F582E43529F58322F583E5A2
:10B5CF00822FF582E43583F58322E52C240CF58256
:10B5DF00E4352BF58322E528241DF582E43527F584
:10B5EF008322E52C241DF582E4352BF58322852A51
:10B5FF008285298322852A8285298322E52A2407A9
:06B60F00F582E43529225A
:10BBBB0075270375285212C992EF70379003D2E0A4
:10BBCB0014F0E0703412B5E5C083C082E0FFA3E04F
:10BBDB0054F7D082D083CFF0A3EFF012B5E5C0833A
:10BBEB00C082E0FFA3E04402D082D083CFF0A3EF6A
:09BBFB00F080009003D27405F003
:01BC0400221D
:1078700075270375284B752903752AD3752B037556
:107880002C5212C992EF700302798612C266EFC3BE
:10789000940C400302798612C26612B5FDEFF07FA8
:1078A0000112CB487F0112CB518528828527837432
:1078B00002F0A3A3A374C8F012B5FDE0FFC3940ABD
:1078C000400302795AE582240712B5D1E00412B5CB
:1078D000BFE0FED39406406AE52A240912B5C4E04D
:1078E000FDE52A240812B5C4EDF0E52A240A12B5F4
:1078F000C4E0FDE52A240912B5C4EDF0E52A240B05
:1079000012B5C4E0FDE52A240A12B5C4EDF0E52A5B
:10791000240C12B5C4E0FDE52A240B12B5C4EDF029
:10792000E52A240D12B5C4E0FDE52A240C12B5C4E5
:10793000ED12B5BF7406F0E52A240DF582E4352971
:10794000801412B5FDE0FFE582240712B5D1E5826F
:107950002EF582E43583F583EFF012B5F1C083C0D4
:1079600082E0FFA3E0440CD082D083CFF0A3EFF0FD
:1079700012B5F1C083C082E0FFA3E054FDD082D0F5
:0679800083CFF0A3EFF03D
:0179860022DE
:10959C0075270375284B752903752AD3752B03750D
:1095AC002C5212B604E0640B602EE582240712B52F
:1095BC00D1E06066D2D512B5D97401F012CB94E526
:1095CC002A2408FFE43529FAA9077B0112B60BF50A
:1095DC0083E0FD12CB6C8042E4FFEF2408FDE43302
:1095EC00FCE52A2DF582E5293CF583E0FE12B60454
:1095FC00A312B5CEEEF00FBF06E0E4FF12B60B12CD
:10960C00B5CCE4F00FBF07F412B5D9E4F0E52C2487
:10961C000F12B5DD7401F012C42712B604E4F08504
:10962C002882852783A374C8F0852882852783A385
:04963C00A37432F0F1
:019640002207
:10B45D0075270375284B752903752AD3752B03752D
:10B46D002C52E4FFE52A2407F582E4352912B5CCE8
:10B47D00E4F00FBF07EEE4FF852A82852983A3122E
:10B48D00B5CEE4F00FBF06F012CB94852A82852944
:10B49D0083E4F0852882852783A374C8F0852882EC
:08B4AD00852783A3A37432F08C
:01B4B5002274
:10C320007452241DF582E43403F583C083C082E097
:10C33000FDA3E054FBD082D083CDF0A3EDF09003B9
:0CC34000D3E024F6700302B45D12959C5B
:01C34C0022CE
:104E5A0000C1814001C0804101C0804100C1814040
:104E6A0001C0804100C1814000C1814001C0804130
:104E7A0001C0804100C1814000C1814001C0804120
:104E8A0000C1814001C0804101C0804100C1814010
:104E9A0001C0804100C1814000C1814001C0804100
:104EAA0000C1814001C0804101C0804100C18140F0
:104EBA0000C1814001C0804101C0804100C18140E0
:104ECA0001C0804100C1814000C1814001C08041D0
:104EDA0001C0804100C1814000C1814001C08041C0
:104EEA0000C1814001C0804101C0804100C18140B0
:104EFA0000C1814001C0804101C0804100C18140A0
:104F0A0001C0804100C1814000C1814001C080418F
:104F1A0000C1814001C0804101C0804100C181407F
:104F2A0001C0804100C1814000C1814001C080416F
:104F3A0001C0804100C1814000C1814001C080415F
:104F4A0000C1814001C0804101C0804100C181404F
:104F5A0000C0C101C30302C2C60607C705C5C4040F
:104F6A00CC0C0DCD0FCFCE0E0ACACB0BC90908C87F
:104F7A00D81819D91BDBDA1A1EDEDF1FDD1D1CDC6F
:104F8A0014D4D515D71716D6D21213D311D1D010DF
:104F9A00F03031F133F3F23236F6F737F53534F4CF
:104FAA003CFCFD3DFF3F3EFEFA3A3BFB39F9F8383F
:104FBA0028E8E929EB2B2AEAEE2E2FEF2DEDEC2C2F
:104FCA00E42425E527E7E62622E2E323E12120E09F
:104FDA00A06061A163A3A26266A6A767A56564A48F
:104FEA006CACAD6DAF6F6EAEAA6A6BAB69A9A868FF
:104FFA0078B8B979BB7B7ABABE7E7FBF7DBDBC7CEF
:10500A00B47475B577B7B67672B2B373B17170B05E
:10501A00509091519353529296565797559594544E
:10502A009C5C5D9D5F9F9E5E5A9A9B5B99595898BE
:10503A00884849894B8B8A4A4E8E8F4F8D4D4C8CAE
:10504A00448485458747468682424383418180401E
:10BD6E0014F5828E83E55DF07B007A0079B5227C36
:10BD7E00006FFD245AF582EC344EF583E493FE7485
:10BD8E005A2DF582EC344FF583E493FDEEFC08E674
:10BD9E006CFFED22051DE51DAE1C22EF2404F5827D
:05BDAE00E43EF58322D4
:08C4ED008B628A6389648D658E
:10C4F500122BBE788FA6F008F618E6FFE56512BD8B
:0DC505007DAB62AA63A964CF8FF0022BE921
:08C512008B438A4489458D46E4
:10C51A00122BBE7883A6F008F618E6FFE54612BD90
:0DC52A007DAB43AA44A945CF8FF0022BE959
:10CA3B00759850759CB8438E15D2BC43B710D2ACC9
:03CA4B00D2AF2245
:030023000263C3B2
:1063C300C0E0C0F0C083C082C0D075D000C000C0A0
:0D63D30001C002C003C004C005C006C00721
:1063E0007E037F4B755E03755F5212BDA9E070039B
:1063F00078B4F612BDA97405F0209803026518C29E
:106400009885995D78B4E6122E6E64290064400187
:10641000645802646903647204647F0564B20664AC
:10642000D10764DE080000651478B77600087600AE
:10643000E55D78B4B4FE04060265187600026518BE
:10644000E55DB4011078B576FF0876FF751C007520
:106450001D000264D902651412BDA27002051C124F
:10646000BD6EFD12C4ED0264D912BDA2700B051CF5
:10647000800712BDA27002051C12BD6EFD8057126E
:10648000BDA27002051C12BD6EFD126533856182CE
:10649000856083A3A3E0FEA3E0FF78B7EEF608EFE4
:1064A000F64E600CD3E6940318E69402500280295D
:1064B000806212BDA27002051C12BD6EFD12C4EDF9
:1064C00078B708E616187001161486064E704980D3
:1064D0000812BD76AD5D12C4ED78B406803A12BDE7
:1064E00076AD5D126533E55F241BF582E4355EF51C
:1064F00083E0FEA3E0FF856182856083E0FCA3E08A
:10650000FD6F7002EC6E6006BCFF07BDFF0478B93A
:086510007601800078B47600EA
:10651800D007D006D005D004D003D002D001D000D7
:10652800D0D0D082D083D0F0D0E03212C4ED7560E4
:05653800007561002266
:08CB85008F993099FDC299223D
:10A19D00C2ACD2B37FFE12CB857F0112CB857E0080
:10A1AD007F008F828E83A3A3E0F53FA3E0F540E50A
:10A1BD0040453F6066D3E5409403E53F9402505B14
:10A1CD008E418F4274FFF53DF53E74042540F540F8
:10A1DD00E4353FF53FE4F53BF53CC3E53C9540E503
:10A1ED003B953F502B0542E542AE417002054114AF
:10A1FD00F5828E83E0F53AFF12CB857B007A0079EC
:10A20D003DAD3A12C512053CE53C70CE053B80CA0A
:0FA21D00E53DFF12CB85AF3E12CB85C2B3D2AC6D
:01A22C00220F
:10CAA700204A4F4341542D58462F2056352E3020CB
:105806007452241BF582E43403F583E0FEA3E0FF23
:10581600227E007F007452241BF582E43403F58354
:10582600E0FCA3E0FD8F828E83E0FAA3E0221582DE
:105836008E83A3A3E0FEA3E022E52A2418F582E4E2
:105846003529F583E4F0E52A2419F582E43529F5AE
:105856008322FFE4352B78FE7C02FAA9077B017DC3
:10586600017E007F04022A6EF582E4352DF583EF72
:10587600F0E52C2408F582E4352BF583022DB4F0EF
:10588600EF2407F582E43EF58322F582E4352DF513
:1058960083EFF022F582E4352DF583EFF0852C8237
:1058A600852B83022DB4FFE435F0FEE43402FDE4DB
:1058B60033FC022E1515828E83A3A3E0FCA3E022FF
:1058C600F582E4352BF583E0FFE52E229002FE12E9
:1058D6002DB49002FA122DDDC3022D71E0852D82C2
:1058E600852C8322FAA9077B017D0122E52C241B46
:1058F600F582E4352B22F582E4352FF583E4F02298
:10590600F582E43CF583EFF022F582E4352CF5834D
:10591600ED22A3A3E4F0A37405F022E52E2405FFEF
:10592600E4352DFAA9077B0122852C82852B83225B
:10593600E52E2405F582E4352DF583E022E52E24B7
:1059460005F582E4352DF583E022E52C2405F58264
:10595600E4352BF583E022E52C2405F582E4352B8E
:10596600F583E022FAA9077B017D0422FEE43402D6
:10597600FDE433FC022E15E47B08FAF9F8D3022D78
:10598600718D828C83A3A3E4F0A322852C82852BC0
:105996008322852E82852D83227E007D027C002235
:1059A600852E82852D8322852E82852D8322852F25
:1059B60082852E8322852D82852C83022DB4852F08
:1059C60082852E8322FFE4352EFAA9077B012285E4
:0659D6002D82852C8322C6
:10CA60007C007D0012598704F0ED2404125906025F
:02CA7000A19D86
:10B7BF00752B00752C00125806125991E0FCA3E06E
:10B7CF006F7002EC6E703B12599112583864014E33
:10B7DF007030125991A3A3F0A37411F0E4FFEF900E
:10B7EF00CAA793FEE52C2405F582E4352BF583E5F6
:10B7FF00822FF582E43583F583EEF00FBF10DF1251
:02B80F00A19DF9
:01B811002214
:1092FB00752C03752DE9125817FB6D7002EA6C6023
:10930B000BEBF47002EAF460030293A48F82125801
:10931B00BD64094C60030293A4EF2406125889E044
:10932B00FDE52D240612590F125885E0FDE52D247D
:10933B000512590FF0EF2408125889E0FDE52D2492
:10934B000412590FF0EF24091258891258E2A3A303
:10935B00A3F0EF240A1258891258E2A3A3F0EF24CA
:10936B000B1258891258E2A3F0EF240C12588912F1
:10937B0058E2F012CAC57B017A0379E9753E007594
:10938B003F07E4FD12B0F78F2B12CAD3E52B600415
:09939B007F8180027F8412CA6008
:0193A40022A6
:10924D00752B03752CE9752D00752E00125806121D
:10925D005998E0FCA3E06F7002EC6E60030292FA85
:10926D0012599812583864014E60030292FA7B012C
:10927D007A0379E912AD2FE52E2405F582E4352D1B
:10928D00F5837420F0E52C24061258C624061258D6
:10929D0090E52C24051258C62407125890E52C246D
:1092AD00041258C6240812589012592FA3A3A3E0F4
:1092BD00FFE52E240912589012592FA3A3E0FFE5C4
:1092CD002E240A12589012592FA3E0FFE52E240BDD
:1092DD0012589012592FE0FFE52E240C12589012BF
:0D92ED005998A3A3E4F0A37409F012A19D09
:0192FA002251
:10C3D1001258176D7002EA6C70201258BB64044C3D
:10C3E1007018EF2405FFE43E1258EA1294F6BF5587
:0AC3F100047F8180027F8412CA607D
:01C3FB00221F
:10C295001258176D7002EA6C70241258BB64044C76
:10C2A500701CEF2405FFE43EFAA9077B01E4FD12AB
:0EC2B50094F6BF55047F8180027F8412CA6018
:01C2C3002258
:10C86E00125817B50514EAB5041012583464014E67
:0AC87E00700812B7177F8112CA601C
:01C88800228D
:10BB2600752B00752C00125806852C82852B83E018
:10BB3600FCA3E06F7002EC6E7030852C82852B833F
:10BB460012583864044E7022FFFE7D02FC12C45265
:10BB5600E52C2405FFE4352BFAA9077B017D0312AA
:0ABB6600A22D12CB3F7F8112CA60AE
:01BB700022B2
:10BA4200752B00752C00125806852C82852B83E0FD
:10BA5200FCA3E06F7002EC6E7031852C82852B8323
:10BA6200125838640D4E70237F0CFE7D02FC12C406
:10BA720052E52C240BFFE4352BFAA9077B017D0646
:0BBA820012A22D12CB3F7F8112CA6080
:01BA8D002296
:10982800752B03752C4B752D00752E00752F037540
:109838003052E530241BF582E4352F12580F852E5F
:1098480082852D83E0FCA3E06F7002EC6E706E855C
:109858002E82852D8312583864094E70601259364D
:10986800FFD394404052EF9445504D12593624BFCF
:1098780075F007A4FFEF24129002FA1258AC900278
:10988800FA122DB412C452E52E2406FFE4352DFA3F
:10989800A9077B017D0712A22D12CB3FE530240AD0
:1098A800F582E4352FF583E4F0852C82852B83A39C
:0D98B800A37432F07F8180027F8312CA60AA
:0198C5002280
:109B3B00752B03752C4B752D00752E00752F03752A
:109B4B003052E530241BF582E4352F12580F852E49
:109B5B0082852D83E0FCA3E06F7002EC6E706A854A
:109B6B002E82852D8312583864064E705C12594331
:109B7B00FFD39440404EEF9449504912594324BFB0
:109B8B0075F004A4FFEF242E9002FA1258AC900249
:109B9B00FA122DB412C452E52E2406FFE4352D1211
:109BAB00596A12A22D12CB3FE530240AF582E43517
:109BBB002FF583E4F0852C82852B83A3A37432F0DD
:099BCB007F8180027F8312CA60D1
:019BD400226E
:10AB6100752B00752C00125806852C82852B83E0ED
:10AB7100FCA3E06F7002EC6E7059852C82852B83EB
:10AB8100125838641A4E704B125950FFD3946350C7
:10AB910006EFC3940050047F84803512595075F03C
:10ABA10018A4FFEF244EFFE435F09002FA12597217
:10ABB1009002FA122DB412C452E52C2406FFE4359A
:10ABC1002BFAA9077B017D1812A22D12CB3F7F81A1
:03ABD10012CA6045
:01ABD400225E
:10AA0100752B00752C00125806852C82852B83E04E
:10AA1100FCA3E06F7002EC6E705B852C82852B834A
:10AA210012583864044E704D12595DFFD394404062
:10AA31003FEF944B503A12595D24BF75F002A4FFC9
:10AA4100EF24AEFFE5F034099002FA125972900238
:10AA5100FA122DB412C452E52C2406FFE4352BFA68
:10AA6100A9077B017D0212A22D12CB3F7F818002BB
:05AA71007F8312CA60A2
:01AA760022BD
:10A34B00752B00752C007D527C03ED241BF582E4EC
:10A35B003C12580F852C82852B83E0FAA3E0FB6F10
:10A36B007002EA6E6008EBF47002EAF4705F852C01
:10A37B0082852B8312583864034E7051E52C2405CB
:10A38B00F582E4352BF583E0FEE52C2406F582E41B
:10A39B00352BF583E07A002400FFEA3EFEED241B0B
:10A3AB00F582E43CF583EEF0A3EFF07F0412599FA6
:10A3BB0012C452E52C2405FFE4352BFAA9077B01C7
:0DA3CB007D0212A22D12CB3F7F8112CA60CD
:01A3D8002262
:10B4B6007D007C00752B03752C521258F212580F22
:10B4C6008D828C83E0FAA3E0FB6F7002EA6E60085F
:10B4D600EBF47002EAF470308D828C831258386473
:10B4E600014E70241258F2F583E0FFED240512593F
:10B4F600061258F2F583A3E0FFED24061259061250
:08B5060059877403F012A19DA6
:01B50E00221A
:10BC9700752B00752C00125806852C82852B83E0A6
:10BCA700FCA3E06F7002EC6E702D852C82852B83D0
:10BCB70012583864024E701F7F06FE7D02FC12C4C4
:10BCC70052E52C2405FFE4352B1258EA12A22D1257
:07BCD700CB3F7F8112CA6020
:01BCDE002243
:109D0600752B03752C4B752D00752E00752F03755D
:109D16003052E530241BF582E4352F12580F852E7C
:109D260082852D83E0FCA3E06F7002EC6E70658582
:109D36002E82852D8312583864024E7057E52E24E4
:109D460005F582E4352DF583E0853082852F83F095
:109D56007F0312599F12C452E52E2405FFE4352DC8
:109D66001258EA12A22D12CB3FE53024101258FCED
:109D7600E53024111258FCE530240A1258FC852CD3
:109D860082852B83A3A3F0852C82852B83A3F07F6A
:049D96008112CA600C
:019D9A0022A6
:10BCDF00752B00752C00125806852C82852B83E05E
:10BCEF00FCA3E06F7002EC6E702D852C82852B8388
:10BCFF0012583864054E701F7F08FE7D02FC12C477
:10BD0F0052E52C2405FFE4352B12596A12A22D128D
:07BD1F00CB3F7F8112CA60D7
:01BD260022FA
:10BFB3001258176D7002EA6C70301258BB64014C52
:10BFC3007028EF2405125889E4F0EF2406125889EB
:10BFD300E412588574C9F0EF240812588974B2F03A
:0ABFE3008F828E8312591812A19D5F
:01BFED002231
:10A3D900752B03752C88752D00752E0012580612E1
:10A3E90059A6E0FCA3E06F7002EC6E706F1259A6DB
:10A3F90012583864014E70647FF57E097D02FC12A3
:10A40900C1077B017A0279FA7D0412A10D120009B4
:10A41900A82CAC2B7D017B017A0279FA12586712BC
:10A4290058A37818122D82E52E240512589A78100F
:10A43900122D82E52E240612589A7808122D82E5EB
:10A449002E240712589AE52E2408F582E4352DF5B5
:0CA4590083EFF01259A612591812A19DB1
:01A4650022D4
:109E3000752B03752C88752D00752E00125806128F
:109E400059ADE0FCA3E06F7002EC6E70761259AD74
:109E500012583864014E706B7FCB7E097D02FC1274
:109E6000C1077B017A0279FA7D0412A10D12000963
:109E7000E52C2408FFE4352BA807FC7D017B017A43
:109E80000279FA1258671258777818122D82E52E47
:109E9000240512586E7810122D82E52E24061258D1
:109EA0006E7808122D82E52E240712586EE52E24B6
:109EB00008F582E4352DF583EFF01259AD125918EB
:039EC00012A19D4F
:019EC300227C
:10A88D00752B00752C00125806852C82852B83E0C4
:10A89D00FCA3E06F7002EC6E7062852C82852B83B9
:10A8AD0012583864254E7054E52C2405FFE4352BE1
:10A8BD0078FE7C02125860E47F20FEFDFC9002FEC3
:10A8CD00122DDD122C23E42FFFE43EFEED341DFD91
:10A8DD00E43CFC9002FA122E159002FA122DB412DD
:10A8ED00C452E52C2409FFE4352BFAA9077B017D21
:0CA8FD002012A22D12CB3F7F8112CA60F6
:01A90900222B
:1098C600752C03752D88752E00752F0012580612FB
:1098D60059B4E0FCA3E06F7002EC6E60030299637A
:1098E6001259B412583864014E7072127F751259AB
:1098F600BBEC4D4E4F606112597D5005752B0880AB
:10990600051259BB8F2B7FC67E097D027C0012C1D2
:1099160007E52F2406FFE4352E12596A12A10D120F
:109926000009E52F240AFFE4352EFAA9077B01ADCD
:109936002B129D9BE52F2405F582E4352EF583E554
:109946002BF075F021A42406FEE435F01259B4A3D9
:0D995600A3F0A3CEF002A19D7F8512CA6090
:0199630022E1
:10BA8E001258176D7002EA6C703112583464014E00
:10BA9E0070297F0D9002FAE4F0A3DFFC7FC212BA88
:10BAAE00CA7D0D12A22D12CB3F7FF512BACA7D04AC
:0BBABE0012A22D12CB3F7F8112CA6044
:10BAC900227E097D027C0012C4527B017A0279FA36
:01BAD900224A
:109EC400752B00752C00125806852C82852B83E097
:109ED400FCA3E06F7002EC6E7078852C82852B8376
:109EE40012583864094E706A7FC67E097D02FC12DE
:109EF400C1077B017A0279FA7D0412A10D120009CF
:109F0400E52C24051258581258D26002801FE52C03
:109F140024091258589002FA122E2100000000124F
:109F240058D25029127B8B787CEFF660057F84022F
:109F3400CA609002FA122DB4EF2401FFE43EFEE45D
:109F44003DFDE43CFC9002FA122E1580D27F811272
:029F5400CA60E1
:019F560022E8
:1090E800752C03752D88752E00752F0012580612E1
:1090F80059C4E0FCA3E06F7002EC6E600302919B20
:109108001259C412583864054E600302919BE52F2A
:1091180024051259CB78FA7C02125865127F751211
:1091280059D5C083C082122DB49002FA122DDD12D7
:109138002C15D082D083122E151259D5122DB4ECCD
:109148004D4E4F604912597D5005752B0880081205
:1091580059D5122DB48F2BE52F24061259CB900226
:10916800FA122DB4852B3712919CE52F2405F58230
:10917800E4352EF583E52BF075F021A42402FEE4F6
:1091880035F01259C4A3A3F0A3CEF002A19D7F85A8
:0391980012CA6098
:01919B0022B1
:10AF5900752B00752C007E037F52EF241B12588934
:10AF6900E0FCA3E0FD852C82852B83E0FAA3E06D4C
:10AF79007002EA6C7041852C82852B831258BF645C
:10AF8900024C7033E52C2405F582E4352BF583E07A
:10AF9900FDEF2414125889EDF07F0712599F12C44E
:10AFA90052E52C2405FFE4352B1258EA12A22D1282
:07AFB900CB3F7F8112CA604B
:01AFC000226E
:10B9F500752B00752C00125806852C82852B83E04B
:10BA0500FCA3E06F7002EC6E7032852C82852B836F
:10BA150012583864214E70247FCF7E097D02FC12B6
:10BA2500C452E52C2405FFE4352BFAA9077B017DDB
:0CBA35002012A22D12CB3F7F8112CA60AC
:01BA410022E2
:10ABD500752B03752C88752D00752E00125806856A
:10ABE5002E82852D83E0FCA3E06F7002EC6E70531E
:10ABF500852E82852D8312583864054E704512596D
:10AC050021787C7C007D00125867127F75EF702ECD
:10AC1500E52C2404F582E4352BF583122DB4787CDC
:10AC2500122DD0D3122D715011125921128792EF86
:10AC350060047F81800A7F8480067F8380027F8312
:03AC450012CA60D0
:01AC480022E9
:1074FE0075270375284B752903752A5278B9E670DE
:10750E0003027625E4F67E007F00E52A241BF58231
:10751E00E43529125824FB6D7002EA6C600BEBF413
:10752E007002EAF46003027625E52A2418125850F8
:10753E007401F0EF2404125889E0122E6E75AC100F
:10754E0075B21175B81275DC1375DF1475E2157509
:10755E00E51675EE1775F71875AF3075B53175BB45
:10756E003275BE3375C13475C43575C73675CA37B5
:10757E0075CD3875D03975D33A75D63B75D93D75FD
:10758E00E83E75EB3F75F44275F14375FD4675FAAD
:10759E00477616877600887607890000762502B72B
:1075AE00BF0292FB02924D02C3D102C29502C86E77
:1075BE0002BB2602BA42029828029B3B02AB610232
:1075CE00AA0102A34B02BC97029D0602BCDF02BFBA
:1075DE00B302A3D9029E300298C602A88D02BA8EBB
:1075EE000290E802AF5902B9F502B4B6029EC40287
:1075FE00ABD512583F7401800412583FE4F0E52ACF
:10760E00241A125850E4F02212583FE4F0E52A24CE
:07761E001A1258507401F02C
:017625002242
:0D000E0000312831303130313130313031A6
:10505A00E53F2406F582E4353EF583E0FFE53D258C
:10506A00E025E0245BF582E43402F583EFF0E53FC6
:10507A002405F582E4353EF583E0FFE53D25E0258C
:10508A00E022E5422406F582E43541F583E0FFE5B6
:10509A003D25E025E0244BF582E43402F583EFF068
:1050AA00E5422405F582E43541F583E0FFE53D2537
:1050BA00E025E022245EF582E43402F5837402F0EE
:1050CA00E53D75F008A4FFEF22244CF582E4340292
:1050DA00F583EFF0E5422404F582E43541F583E0F7
:1050EA002275F007A4FFEF2412FFE435F0FEE43442
:1050FA0002FDE433FC022E15E53F2405F582E43572
:10510A003EF583E022E5482405F582E43547F58338
:10511A0022854282854183A322853F82853E83A3DD
:10512A0022244BF582E43402F58322244CF582E4EE
:10513A003402F58322244DF582E43402F5832224D5
:10514A005BF582E43402F58322245CF582E43402BE
:10515A00F58322245DF582E43402F58322244EF598
:10516A0082E43402F58322245EF582E43402F58374
:10517A0022E53F2406F582E4353EF583E022FFE48A
:10518A0035F0900316FEE43402FDE433FC022E15DA
:10519A009400FE900316F0A3EFF07C007D3C122BE6
:1051AA0041900316EEF0A3EFF022741E253DF5821E
:1051BA00E43402F583E0FFD3900317E09F900316CF
:1051CA00E0940022E0FEC4540FFD854682854583A3
:1051DA0022E0FF900316E4F0A3EFF0900316E475C3
:1051EA00F001022BA8F582E4353BF58322F582E42F
:1051FA003545F583E0FDEE540F6D22EF241BF58251
:10520A00E43EF58322854282854183E0FF22853F81
:10521A0082853E83E0FF22E53F2404F582E4353EA1
:10522A00F583E022FFE0FEEFD39E227D017B017E23
:10523A00007F04022A6EF582E4353FF58322A3E05B
:08524A00FF90031BE0FEEF22C0
:108A0D00E4FF7545037546D37547037548529002CB
:108A1D000AE020E503028ABDE548240F125113E058
:108A2D00607312510FE0705D900219E0FEC4540F97
:108A3D00FDE5462405F582E43545F583E06D70349A
:108A4D00E54624061251F7702B9002181251CEA351
:108A5D00A3A3E06D701EE54624041251F770159026
:108A6D0002171251CEA3E0B5050A1251D4A3A312D9
:108A7D0051FE600912510FE4F07F02803A12510F3E
:108A8D007401F08032E548240F125113E4F01251B5
:108A9D000FE4F0802212CB9412C635E54824101253
:108AAD0051137401F01251D4E4F0A3F07F03800749
:108ABD0012510FE4F07F01E4FE1251D4A3E5822E92
:0D8ACD00F582E43583F583E4F00EBE06EC7F
:018ADA002279
:10A78F00E4F97E037F52125205E0FCC3EC940150B2
:10A79F006C90020AE030E165125205A3E05407FD08
:10A7AF00125205E0FEA3E07803CEC313CE13D8F9FF
:10A7BF00FFED70031F7D08EFC39410501FED14FEC3
:10A7CF0074272FF582E43402F583E0FCA806088095
:10A7DF0002C313D8FC20E0257901802174F02FFFEC
:10A7EF00ED14FE743B2FF582E43402F583E0FFA8ED
:0FA7FF0006088002C313D8FC20E0027901AF01E5
:01A80E002227
:106B0100E4F53D753E03753FE9900209E0A320E0FD
:106B110003026C2B900275E0FF12C909787EA6076B
:106B2100125221FF12C9097881EFF6787EE6FE6FD5
:106B31006034C37881E69E787DF664016003026B60
:106B4100C3126C2EE0FF12C909A9077883E9F61870
:106B5100E62418FFE433FE787FE6FDC3EF9DFFEEE8
:106B610012519AE98032126C2EE0FF12C909788322
:106B7100A60718E6FF787FE6FE6F603AEFD39E40E6
:106B81000DE6FF7882E69FFFE412519A8003753D7E
:106B910002E53D70427883E6FF900316E48FF01220
:106BA1002BA87880E6FFC3900317E09FF0900316AF
:106BB100E09400F080217880E6FF7883E6FEC39FB1
:106BC1005005753D028010EFFDEEC39DFEE494007B
:106BD100900316F0A3CEF0E53D702F7F06FE7D02F7
:106BE100FC12C1077B007A00797C7D0112A10D1294
:106BF1000009787CE6FFC3900317E09F900316E03D
:106C010094005006753D017F0122125221900275B8
:106C1100F0853F82853E83A3A3E0900276F0853F15
:0C6C210082853E83A3E0900277F07F00A4
:106C2D0022900276E0FF12C909787FA607900277BD
:106C3D00E0FF12C9097880A607853F82853E83A3B0
:106C4D00A3E0FF12C9097882A607853F82853E839E
:026C5D00A32270
:10B28D00E4F53D753E03753F52900209E0FAA3E0E7
:10B29D00FB30E44B900223122DB4900316122E15A1
:10B2AD00EB90031630E009122DB4E53F24238007FF
:10B2BD00122DB4E53F241FF582E4353EF583122DA2
:10B2CD00DD122C15900316122E15900213122DB4AB
:10B2DD00900316122DDDC3122D715003753D01AF74
:01B2ED003D23
:01B2EE00223D
:10832D00E4F53D753E03753FE97540037541529087
:10833D000209E0FAA3E0FB20E20302841212517B52
:10834D00FF90026FE0FEEF6E7022E53F24051251A3
:10835D007FFF900270E0FEEFB50611E53F24041299
:10836D00517FFF900271E0FEEF6E602790026B125D
:10837D002E210000000090020AE030E006E54124C5
:10838D00238004E541241FF582E43540F583122D49
:10839D00B48024EB90026B30E009122DB4E541243A
:1083AD00238007122DB4E541241FF582E43540F5F5
:1083BD0083122DDD122C0890026B122E1512517B9B
:1083CD0090026FF0E53F240512517F900270F0E5A9
:1083DD003F240412517F900271F090021A122DB4B5
:1083ED0090026B122DDDD3122D714019128A0DEFF3
:1083FD006013BF0105753D01800BBF0205753D0280
:07840D008003753D03AF3D44
:018414002245
:10BDB300753D05900209E0A330E137E4FF12699372
:10BDC300EF6005E4F53D802A7F01126993EF60057A
:10BDD300753D01801D7F02126993EF6005753D0279
:10BDE30080107F03126993EF6005753D038003752F
:04BDF3003D04AF3D1F
:01BDF7002229
:023A21008F3DD7
:103A2300E4F53E7541037542E975430375445290CD
:103A33000209E0FEA3E020E303023D5AEE20E10386
:103A4300023D5AE53D9003181250EB900318122DD6
:103A5300B412C1077B017A03791C7D0712A10D12F1
:103A6300000990031CE07003023CD712511BA3E032
:103A730090031D12522E503AEFB5060C12511BE063
:103A830090031E12522E502A12511BA3E0FF9003E3
:103A93001DE0FEEF6E706212511BE0FF90031EE00B
:103AA300FEEF6E705412520F90031FE0FEEFC39EA1
:103AB300404712511BA3E0FF7423D39F4003023CF2
:103AC300D7EFB4230E12511BE0FF7459D39F400369
:103AD300023CD712511BA3E064236003023D5A1238
:103AE300511BE064596003023D5A12520F7459C3CB
:103AF3009F5003023D5A023CD712511BA3E0FF9093
:103B03000320E0FED39F503EEEB5070D12511BE09C
:103B1300FF900321E0D39F502D12511BA3E0FF9090
:103B23000320E06F6003023D5A12511BE0FF900334
:103B330021E06F6003023D5A12520F900322E0C34B
:103B43009F5003023D5AE54224061250AE12512BF8
:103B5300E06F6032E54224051250E26401702712DF
:103B630050DE64017020123D6D1250B712512BE5E7
:103B730040F01250B71251357412F01250B712516F
:103B83003F7431023C70E54224061250AE12512BB1
:103B9300E06F6003023C23E54224051250E2FE126B
:103BA30050B7125135E06E60771250DE64017070C9
:103BB3001250B712512BEFF0E54224051250E212D6
:103BC3003D5D1250B7125135E540F01250B7125116
:103BD3002BE0FF12C909787CA6071250B7125135A2
:103BE300E0FF12C909787DA607087628787CE65499
:103BF300037004787E7629787DE664026015E542D9
:103C030024051250E2FF12C9098F40EF90000E9372
:103C1300787EF6787EE61250B612513FEF023C7082
:103C2300E54224061250AE12512BE06F704C125035
:103C3300AA125135E06F70421250DEFE1250B712D5
:103C4300513FE0FF6E603312C9098F400540AF401A
:103C530012C8898F401250DE6540701E12508C12BC
:103C630050D3123D5D1250B712513FE540F0125050
:103C7300B71251671251DB023CA012508C1250D381
:103C8300FF123D6D1250B712513FE540F0900316FD
:103C9300E4F0A304F01250B7125167E4F01251B4E8
:103CA3004026128A0D8F3FE53F7003023D5AB4014F
:103CB30006753E01023D5AE53FB40206753E020217
:103CC3003D5A753E03023D5A1250B7125167E00444
:103CD300F0023D5AE54224061250AE12512BE06F1A
:103CE30070181250AA125135E0B5070EE5422404AC
:103CF3001250AE12513FE06F6012900316E4F0A32E
:103D030004F01250B7125167E4F080091250B71251
:103D130051671251DB1251B44020128A0D8F3FE5D7
:103D23003F6020B40105753E018018E53FB40205EC
:103D3300753E02800E753E0380091250B71251671B
:103D4300E004F012508C125135EFF0E542240412D6
:093D530050AE12513FEFF0AF3EFB
:103D5C0022FF12C9098F401540AF4012C8898F400D
:103D6C002212C9098F401540AF4012C8898F4022DA
:0236A4008F3D58
:1036A600753E03753FE9754003754152900209E086
:1036B600FEA3E020E6030239D4EE20E1030239D46A
:1036C600E53D9003161250EB123A117D0712A10D3B
:1036D60012000990031AE0700302395312512312A3
:1036E6005248D39E5037EFB5060F125123E0FF9094
:1036F600031CE0FEEFD39E50241251231252486E53
:103706007062125123E0FF90031CE0FEEF6E7054CE
:1037160012521890031DE0FEEFC39E40471251233C
:10372600A3E0FF7423D39F4003023953EFB4230E63
:10373600125123E0FF7459D39F40030239531251AB
:1037460023A3E0642360030239D4125123E06459B1
:1037560060030239D41252187459C39F50030239B8
:10376600D4023953125123A3E0FF90031EE0FED387
:103776009F503EEEB5070D125123E0FF90031FE068
:10378600D39F502D125123A3E0FF90031EE06F60DC
:10379600030239D4125123E0FF90031FE06F600348
:1037A6000239D4125218900320E0C39F5003023905
:1037B600D4E53F240612507C125149E06F604B124B
:1037C600510264017044E53F2404125106640170FD
:1037D600391239FF125085125149EFF012508512F5
:1037E60051537412F012508512515D7431F012501B
:1037F60085125171E0600B1250851250BE243202C0
:10380600394D1250CA242E02394DE53F2406125076
:103816007C125149E06F60030238C3125102FE1256
:103826005085125153E06E70030238C3E53F2404FD
:10383600125106640160030238C3125085125149C1
:10384600EFF0125102FF1239FF125085125153EF59
:10385600F0125085125149E0FF12C909787DA6077A
:10386600125085125153E0FF12C909787EA6070847
:103876007628787DE654037004787F7629787EE68C
:1038860064026013125102FF12C909787CA607E68A
:1038960090000E93787FF6787FE612508412515D81
:1038A600EFF0125085125171E0600A1250851250E5
:1038B600BE243280051250CA242E02394DE53F241B
:1038C6000612507C125149E06F7061125078125105
:1038D60053E06F7057E53F2404125106FE125085DF
:1038E60012515DE0FF6E604412C909787CA6070696
:1038F600E6FF12C889787CEFF6E53F2404125106EC
:103906006F702912505A1239D512508512515DEF37
:10391600F0125085125171E0600A1250851250BEA5
:10392600243280051250CA242E02394D12505A12E2
:1039360039D512508512515DEFF012508512517132
:1039460074011250C9242E1251880239B7E53F245A
:103956000612507C125149E06F70181250781251BD
:1039660053E0B5070EE53F240412507C12515DE08A
:103976006F600F12508512517174011250C9242EB6
:103986008018125085125171E0600A12508512504B
:10399600BE243280051250CA242E12518812505A63
:1039A600125153EFF0E53F240412507C12515DEFA3
:1039B600F0123A117D0412A10D120009E541241FEF
:0E39C600FFE43540A807FC7A03791A12523547
:1039D40022245CF582E43402F583EFF0E53F24040D
:1039E400F582E4353EF583E0FF12C909787CA60729
:1039F40016E6FF12C889787CEFF62212C909787C92
:103A0400A60716E6FF12C889787CEFF62290031603
:0D3A1400122DB412C1077B017A03791A222A
:10996400753D03753E5290020AE020E003029A011D
:10997400900222E024BF75F002A4FFEF24AEFFE5BD
:10998400F0340990031612518F900316122DB4125D
:10999400C1077B017A03791A7D0212A10D12000915
:1099A40090031AE0FEA3E07C002400787DF6EC3EF0
:1099B40018F6E53E241FF582E4353DF583122DB4F7
:1099C400E41228DFE4FBFA797A7844122842C004CE
:1099D400C005C006C007787CE6FC08E6FDE4122852
:1099E400E4D003D002D001D00012273912291DE59A
:0D99F4003E2423F582E4353DF583122E1547
:019A01002242
:10BF7700753D03753E4B753F0375405212CA127FDC
:10BF87000312B865E54024071252407401F0E540FA
:10BF97002405125240E4F0E540240F125240E4F029
:0BBFA700853E82853D83A3A3740AF051
:01BFB200226C
:10682500753903753A4B753B03753C52127F75EF0D
:1068350060030268C912A78F8F37E53760057F159A
:1068450002698A126B018F37E53760057F18026987
:106855008A12BDB38F38E538B404057F1702698AFB
:10686500AF38123A218F37E537601BB402057F1325
:1068750002698AE537B4010C7F1412BF7712CAB7D3
:106885007F1C80658069853C82853B83E0B4030578
:10689500AF381236A412996490020AE030E006E59A
:1068A5003C24238004E53C241F1251EF122DB490A3
:1068B500030A122E157B017A03790A12AC498F3728
:1068C500E53760057F1D02698A12832D8F37E5370D
:1068D5006051B402057F1302698AE537B401107F60
:1068E5001E12BF7712CAB77F1712C9217F0122E591
:1068F5003C24051251EFE4F0E53C240F1251EFE47E
:10690500F0E53C24071251EF7401F0853A82853990
:1069150083A374C8F0853A82853983A3A37432F0C2
:106925007F012212B28D8F37E53760047F168055BF
:106935007F087E007D027C0012C1077B017A037906
:10694500127D0412A10D120009780A7C037A0379DD
:106955001212523590020AE030E006E53C2423800D
:1069650004E53C241F1251EF122DB490030E122E94
:106975001590030A122DB490030E122DDDD3122D9E
:0D6985007140087F1A12BF777F01227F004A
:0169920022E2
:10C8D800001F1C1F1E1F1E1F1F1E1F1E1F000303DD
:09C8E80006080B0D101315181AB7
:1096E600EB2405F582E43AF583EFF0EB2404F582EA
:1096F600E43AF58322854082853F83A322900302C4
:10970600122E15900302122DB47808122D9590038F
:1097160002122E1590030222854082853F83E0FFC8
:1097260022EFF08B828A83A3A3A322E47B08FAF9B3
:10973600F8022DB4A3E0FF90031BE0FEEF22752D87
:10974600019002FA122DB4EF5407FFE52DA8070881
:1097560022E0FF90031CE0FEEF22ED540FFDE4FC37
:10976600122E157F407E427D0F7C0022C2A575C158
:109776003CED1D22A3E0FF90031EE022E0FF9003D4
:039786001FE022BF
:09CB4800EF6003C2A522D2A52270
:10C635007F647DE27C0812977270011CED4C70F6E8
:10C645007C017DE212977270011CED4C70F6DFE201
:02C65500D2A56C
:01C6570022C0
:10B86500EFD39400404B7E327C087DE212977270D4
:10B87500011CED4C70F67C037DE212977270011C81
:10B88500ED4C70F6DEE27E057C087DE2D2A575C141
:10B895003CED1D70011CED4C70F27C037DE2D2A5E0
:10B8A50075C13CED1D70011CED4C70F2DEDA1F8098
:01B8B500AFE3
:01B8B600226F
:09CB5100EF6003C2A622D2A62265
:02C90900AE0777
:10C90B007804EF08800123D8FD540F75F00AA4FFBB
:05C91B00EE540F2FFF98
:01C9200022F4
:02C88900AE07F8
:10C88B00EE75F00A84FF780408800123D8FDFFEED3
:08C89B0075F00A84E5F0420784
:01C8A3002272
:10C5C900E4FEAD0753050FEDC3940A5012AD07ED14
:10C5D900C4540FFD53050FED940A40050E80027EE9
:03C5E90001AF0699
:01C5EC00222C
:107626007BE97A03EB24051296F4E0FF12C90912EE
:1076360096E6E0FF12C9091296F1129727E0FF12AB
:10764600C909129729EFF0EB24061296F4E0FF120F
:10765600C909EB24061296F4EFF07F1CEB24061200
:1076660096F4E0540370010FEB24051296F4E0FE45
:1076760064026006EE90C8D893FF1296F1E0D39F9D
:1076860040051296F1EFF0E4FFEB24061296F4E0C3
:10769600FE6019EB24061296F4E0FD14FF5307FC76
:1076A6007802EF08800103D8FD2DFF0FEE5403701A
:1076B6000DEB24051296F4E0C3940340010FEB246E
:1076C600051296F4E090C8E4932FFFE433FE129679
:1076D600F1E07C002F7884F6EC3E18F6E6FE08E62C
:1076E600FF7D07122B53ED2405FFC3940840047455
:1076F600F92FFF129729EFF0EB24061296F4E0FF1C
:1077060012C889EB24061296F4EFF0EB24051296C4
:10771600F4E0FF12C8891296E6E0FF12C8891296B5
:10772600F1129727E0FF12C889129729EFF012CAC3
:10773600C57B017A0379E9753E00753F07E4FD12C2
:05774600B0F702CAD3F8
:068DFA008B2E8A2F893048
:108E0000E4F531900002122AAD540FFFE4FCFDFEA0
:108E1000129703122DDDC000C001C002C003AB2EAB
:108E2000AA2FA930900001122AADFFE4FCFDFED06C
:108E300003D002D001D000122D40129703122DDD75
:108E4000C001C002C003AB2EAA2FA930122A94FF82
:108E5000E4FCFDFED003D002D001122D4012971485
:108E6000122DB4900302129760900302122DDDD3ED
:108E7000122D7140028040900302129731122CAEE5
:108E8000900306122E15900306122DB412C1077B13
:108E9000007A0079327D0112A10D120009900302BF
:108EA000122DB4EF5407FFE532A807088002C31360
:0C8EB000D8FCF53220E003753101AF3131
:018EBC002293
:10B71700900322122E2100000000900322122DB464
:10B7270012C452E4FFFE7D02FC900322122DDDC3FA
:10B73700122D71502C75C13C752BFF7B007A007957
:10B747002B7D0112A22D900322122DB4EF2401FFAD
:10B75700E43EFEE43DFDE43CFC900322122E1580FE
:04B76700C202CB3F10
:0294F6008D2BBC
:1094F80078FA7C027D017E007F03122A6E9002FAC0
:10950800122DB47808122D829002FA122E159002AC
:10951800FA122DB49002FA1297609002FA122DDD19
:10952800D3122D714006752DFF0295999002FA12FB
:109538009731122CAE9002FE122E159002FE122DBB
:10954800B412C1077B007A00792C7D0112A10D129B
:109558000009E52B60141297448002C333D8FCF548
:109568002D632DFFE52D522C800D1297448002C3E8
:1095780033D8FCF52D422C9002FE122DB412C452A1
:109588007B007A00792C7D0112A22D12CB3F752D1C
:0395980055AF2D9F
:01959B0022AD
:10699300E4F53E753F037540E9EF75F007A4FFEF9B
:1069A3002412FFE435F0FEE43402FDE433FC9003EB
:1069B30016122E15900316122DB412C1077B017AFD
:1069C30003791A7D0712A10D12000990031AE070D2
:1069D30003026A8E1296FB12973AD39E502DEFB59F
:1069E300060A1296FB129757D39E501F1296FB125C
:1069F300973A6E70571296FB1297576E704E129716
:106A03001E90031DE0FEEFC39E40411296FBA3E0E0
:106A1300FF7423D39F5032EFB4230B1296FBE0FF96
:106A23007459D39F50231296FBA3E064236003029F
:106A33006AFE1296FBE064596003026AFE12971E17
:106A43007459C39F5003026AFE026AFB1296FB123B
:106A5300977AFED39F5031EEB5070A1296FB129731
:106A630082D39F50231296FB12977A6F6003026AB8
:106A7300FE1296FB1297826F6003026AFE12971E44
:106A8300900320E0C39F4073026AFB1296FB1297A8
:106A93003AD39E502DEFB5060A1296FB129757D3A1
:106AA3009E501F1296FB12973A6E704F1296FB126E
:106AB30097576E704612971E90031DE0FEEFC39E1C
:106AC30040391296FB12977AFED39F502BEEB507EF
:106AD3000A1296FB129782D39F501D1296FB1297B0
:106AE3007A6F70171296FB129782B5070E12971ED4
:0D6AF300900320E0C39F4003753E01AF3EBD
:016B00002272
:06CA5400C1034103F000E4
:10964100E52C240EF582E4352BF583E4F0E52C249A
:1096510005F582E4352BF58322E52E2410F582E40D
:10966100352DF58322F0E52B240AF582E4352AF520
:109671008322E52C2410F582E4352BF58322E52C99
:109681002410F582E4352BF58322E52E241FFFE417
:10969100352DFAA9077B017D0122E02496F582E4AC
:1096A1003402F58322E52A2404F582E43529F58381
:1096B10022E52A2404F582E43529F58322852C82CA
:1096C100852B83A3A3A322852982852883A3A32293
:1096D100122DB49002FE122DDD022C08F0852A8293
:0596E100852983A3228E
:10A07C0075270375284B752903752AB6752B03753F
:10A08C002C521296A6E0606D129673E07067E52C68
